{
  "contractName": "DeedImplementation",
  "abi": [
    {
      "inputs": [
        {
          "internalType": "address payable",
          "name": "initialOwner",
          "type": "address"
        }
      ],
      "payable": true,
      "stateMutability": "payable",
      "type": "constructor"
    },
    {
      "anonymous": false,
      "inputs": [
        {
          "indexed": false,
          "internalType": "address",
          "name": "newOwner",
          "type": "address"
        }
      ],
      "name": "OwnerChanged",
      "type": "event"
    },
    {
      "anonymous": false,
      "inputs": [],
      "name": "DeedClosed",
      "type": "event"
    },
    {
      "constant": false,
      "inputs": [
        {
          "internalType": "address payable",
          "name": "newOwner",
          "type": "address"
        }
      ],
      "name": "setOwner",
      "outputs": [],
      "payable": false,
      "stateMutability": "nonpayable",
      "type": "function"
    },
    {
      "constant": false,
      "inputs": [
        {
          "internalType": "address",
          "name": "newRegistrar",
          "type": "address"
        }
      ],
      "name": "setRegistrar",
      "outputs": [],
      "payable": false,
      "stateMutability": "nonpayable",
      "type": "function"
    },
    {
      "constant": false,
      "inputs": [
        {
          "internalType": "uint256",
          "name": "newValue",
          "type": "uint256"
        },
        {
          "internalType": "bool",
          "name": "throwOnFailure",
          "type": "bool"
        }
      ],
      "name": "setBalance",
      "outputs": [],
      "payable": false,
      "stateMutability": "nonpayable",
      "type": "function"
    },
    {
      "constant": false,
      "inputs": [
        {
          "internalType": "uint256",
          "name": "refundRatio",
          "type": "uint256"
        }
      ],
      "name": "closeDeed",
      "outputs": [],
      "payable": false,
      "stateMutability": "nonpayable",
      "type": "function"
    },
    {
      "constant": false,
      "inputs": [],
      "name": "destroyDeed",
      "outputs": [],
      "payable": false,
      "stateMutability": "nonpayable",
      "type": "function"
    },
    {
      "constant": true,
      "inputs": [],
      "name": "owner",
      "outputs": [
        {
          "internalType": "address",
          "name": "",
          "type": "address"
        }
      ],
      "payable": false,
      "stateMutability": "view",
      "type": "function"
    },
    {
      "constant": true,
      "inputs": [],
      "name": "previousOwner",
      "outputs": [
        {
          "internalType": "address",
          "name": "",
          "type": "address"
        }
      ],
      "payable": false,
      "stateMutability": "view",
      "type": "function"
    },
    {
      "constant": true,
      "inputs": [],
      "name": "value",
      "outputs": [
        {
          "internalType": "uint256",
          "name": "",
          "type": "uint256"
        }
      ],
      "payable": false,
      "stateMutability": "view",
      "type": "function"
    },
    {
      "constant": true,
      "inputs": [],
      "name": "creationDate",
      "outputs": [
        {
          "internalType": "uint256",
          "name": "",
          "type": "uint256"
        }
      ],
      "payable": false,
      "stateMutability": "view",
      "type": "function"
    }
  ],
  "bytecode": "0x608060405260405161092f38038061092f8339818101604052602081101561002657600080fd5b8101908080519060200190929190505050806000806101000a81548173ffffffffffffffffffffffffffffffffffffffff021916908373ffffffffffffffffffffffffffffffffffffffff16021790555033600260006101000a81548173ffffffffffffffffffffffffffffffffffffffff021916908373ffffffffffffffffffffffffffffffffffffffff160217905550426003819055506001600560006101000a81548160ff021916908315150217905550346004819055505061083e806100f16000396000f3fe608060405234801561001057600080fd5b50600436106100b0576000357c010000000000000000000000000000000000000000000000000000000090048063674f220f11610083578063674f220f1461013f5780638da5cb5b14610189578063b0c80972146101d3578063bbe427711461020d578063faab9d391461023b576100b0565b806305b34410146100b55780630b5ab3d5146100d357806313af4035146100dd5780633fa4f24514610121575b600080fd5b6100bd61027f565b6040518082815260200191505060405180910390f35b6100db610284565b005b61011f600480360360208110156100f357600080fd5b81019080803573ffffffffffffffffffffffffffffffffffffffff16906020019092919050505061028e565b005b61012961042a565b6040518082815260200191505060405180910390f35b610147610434565b604051808273ffffffffffffffffffffffffffffffffffffffff1673ffffffffffffffffffffffffffffffffffffffff16815260200191505060405180910390f35b61019161045e565b604051808273ffffffffffffffffffffffffffffffffffffffff1673ffffffffffffffffffffffffffffffffffffffff16815260200191505060405180910390f35b61020b600480360360408110156101e957600080fd5b8101908080359060200190929190803515159060200190929190505050610487565b005b6102396004803603602081101561022357600080fd5b8101908080359060200190929190505050610595565b005b61027d6004803603602081101561025157600080fd5b81019080803573ffffffffffffffffffffffffffffffffffffffff1690602001909291905050506106c2565b005b600090565b61028c610760565b565b600260009054906101000a900473ffffffffffffffffffffffffffffffffffffffff1673ffffffffffffffffffffffffffffffffffffffff163373ffffffffffffffffffffffffffffffffffffffff16146102e857600080fd5b600073ffffffffffffffffffffffffffffffffffffffff168173ffffffffffffffffffffffffffffffffffffffff16141561032257600080fd5b6000809054906101000a900473ffffffffffffffffffffffffffffffffffffffff16600160006101000a81548173ffffffffffffffffffffffffffffffffffffffff021916908373ffffffffffffffffffffffffffffffffffffffff160217905550806000806101000a81548173ffffffffffffffffffffffffffffffffffffffff021916908373ffffffffffffffffffffffffffffffffffffffff1602179055507fa2ea9883a321a3e97b8266c2b078bfeec6d50c711ed71f874a90d500ae2eaf3681604051808273ffffffffffffffffffffffffffffffffffffffff1673ffffffffffffffffffffffffffffffffffffffff16815260200191505060405180910390a150565b6000600454905090565b6000600160009054906101000a900473ffffffffffffffffffffffffffffffffffffffff16905090565b60008060009054906101000a900473ffffffffffffffffffffffffffffffffffffffff16905090565b600260009054906101000a900473ffffffffffffffffffffffffffffffffffffffff1673ffffffffffffffffffffffffffffffffffffffff163373ffffffffffffffffffffffffffffffffffffffff16146104e157600080fd5b600560009054906101000a900460ff166104fa57600080fd5b81600454101561050957600080fd5b816004819055506000809054906101000a900473ffffffffffffffffffffffffffffffffffffffff1673ffffffffffffffffffffffffffffffffffffffff166108fc833073ffffffffffffffffffffffffffffffffffffffff1631039081150290604051600060405180830381858888f1935050505080610588575080155b61059157600080fd5b5050565b600260009054906101000a900473ffffffffffffffffffffffffffffffffffffffff1673ffffffffffffffffffffffffffffffffffffffff163373ffffffffffffffffffffffffffffffffffffffff16146105ef57600080fd5b600560009054906101000a900460ff1661060857600080fd5b6000600560006101000a81548160ff02191690831515021790555061dead73ffffffffffffffffffffffffffffffffffffffff166108fc6103e83073ffffffffffffffffffffffffffffffffffffffff1631846103e803028161066757fe5b049081150290604051600060405180830381858888f1935050505061068b57600080fd5b7fbb2ce2f51803bba16bc85282b47deeea9a5c6223eabea1077be696b3f265cf1360405160405180910390a16106bf610760565b50565b600260009054906101000a900473ffffffffffffffffffffffffffffffffffffffff1673ffffffffffffffffffffffffffffffffffffffff163373ffffffffffffffffffffffffffffffffffffffff161461071c57600080fd5b80600260006101000a81548173ffffffffffffffffffffffffffffffffffffffff021916908373ffffffffffffffffffffffffffffffffffffffff16021790555050565b600560009054906101000a900460ff161561077a57600080fd5b6000809054906101000a900473ffffffffffffffffffffffffffffffffffffffff1673ffffffffffffffffffffffffffffffffffffffff166108fc3073ffffffffffffffffffffffffffffffffffffffff16319081150290604051600060405180830381858888f19350505050156108075761dead73ffffffffffffffffffffffffffffffffffffffff16ff5b56fea265627a7a72315820d243f04e4b26688ecac90dd6e87659d7f3b340ebb2e79f523c329240cab00a2a64736f6c634300050b0032",
  "source": "pragma solidity ^0.5.0;\n\nimport \"./Deed.sol\";\n\n/**\n * @title Deed to hold ether in exchange for ownership of a node\n * @dev The deed can be controlled only by the registrar and can only send ether back to the owner.\n */\ncontract DeedImplementation is Deed {\n\n    address payable constant burn = address(0xdead);\n\n    address payable private _owner;\n    address private _previousOwner;\n    address private _registrar;\n\n    uint private _creationDate;\n    uint private _value;\n\n    bool active;\n\n    event OwnerChanged(address newOwner);\n    event DeedClosed();\n\n    modifier onlyRegistrar {\n        require(msg.sender == _registrar);\n        _;\n    }\n\n    modifier onlyActive {\n        require(active);\n        _;\n    }\n\n    constructor(address payable initialOwner) public payable {\n        _owner = initialOwner;\n        _registrar = msg.sender;\n        _creationDate = now;\n        active = true;\n        _value = msg.value;\n    }\n\n    function setOwner(address payable newOwner) external onlyRegistrar {\n        require(newOwner != address(0x0));\n        _previousOwner = _owner;  // This allows contracts to check who sent them the ownership\n        _owner = newOwner;\n        emit OwnerChanged(newOwner);\n    }\n\n    function setRegistrar(address newRegistrar) external onlyRegistrar {\n        _registrar = newRegistrar;\n    }\n\n    function setBalance(uint newValue, bool throwOnFailure) external onlyRegistrar onlyActive {\n        // Check if it has enough balance to set the value\n        require(_value >= newValue);\n        _value = newValue;\n        // Send the difference to the owner\n        require(_owner.send(address(this).balance - newValue) || !throwOnFailure);\n    }\n\n    /**\n     * @dev Close a deed and refund a specified fraction of the bid value\n     *\n     * @param refundRatio The amount*1/1000 to refund\n     */\n    function closeDeed(uint refundRatio) external onlyRegistrar onlyActive {\n        active = false;\n        require(burn.send(((1000 - refundRatio) * address(this).balance)/1000));\n        emit DeedClosed();\n        _destroyDeed();\n    }\n\n    /**\n     * @dev Close a deed and refund a specified fraction of the bid value\n     */\n    function destroyDeed() external {\n        _destroyDeed();\n    }\n\n    function owner() external view returns (address) {\n        return _owner;\n    }\n\n    function previousOwner() external view returns (address) {\n        return _previousOwner;\n    }\n\n    function value() external view returns (uint) {\n        return _value;\n    }\n\n    function creationDate() external view returns (uint) {\n        _creationDate;\n    }\n\n    function _destroyDeed() internal {\n        require(!active);\n\n        // Instead of selfdestruct(owner), invoke owner fallback function to allow\n        // owner to log an event if desired; but owner should also be aware that\n        // its fallback function can also be invoked by setBalance\n        if (_owner.send(address(this).balance)) {\n            selfdestruct(burn);\n        }\n    }\n}\n",
  "sourcePath": "@ensdomains/ens/contracts/DeedImplementation.sol",
  "compiler": {
    "name": "solc",
    "version": "0.5.11+commit.c082d0b4.Emscripten.clang"
  },
  "schemaVersion": "3.0.2",
  "updatedAt": "2019-08-13T18:57:30.187Z",
  "devdoc": {
    "details": "The deed can be controlled only by the registrar and can only send ether back to the owner.",
    "methods": {
      "closeDeed(uint256)": {
        "details": "Close a deed and refund a specified fraction of the bid value",
        "params": {
          "refundRatio": "The amount*1/1000 to refund"
        }
      },
      "destroyDeed()": {
        "details": "Close a deed and refund a specified fraction of the bid value"
      }
    },
    "title": "Deed to hold ether in exchange for ownership of a node"
  },
  "userdoc": {
    "methods": {}
  }
}