{
  "contractName": "ENSRegistry",
  "abi": [
    {
      "inputs": [],
      "payable": false,
      "stateMutability": "nonpayable",
      "type": "constructor"
    },
    {
      "anonymous": false,
      "inputs": [
        {
          "indexed": true,
          "internalType": "bytes32",
          "name": "node",
          "type": "bytes32"
        },
        {
          "indexed": true,
          "internalType": "bytes32",
          "name": "label",
          "type": "bytes32"
        },
        {
          "indexed": false,
          "internalType": "address",
          "name": "owner",
          "type": "address"
        }
      ],
      "name": "NewOwner",
      "type": "event"
    },
    {
      "anonymous": false,
      "inputs": [
        {
          "indexed": true,
          "internalType": "bytes32",
          "name": "node",
          "type": "bytes32"
        },
        {
          "indexed": false,
          "internalType": "address",
          "name": "owner",
          "type": "address"
        }
      ],
      "name": "Transfer",
      "type": "event"
    },
    {
      "anonymous": false,
      "inputs": [
        {
          "indexed": true,
          "internalType": "bytes32",
          "name": "node",
          "type": "bytes32"
        },
        {
          "indexed": false,
          "internalType": "address",
          "name": "resolver",
          "type": "address"
        }
      ],
      "name": "NewResolver",
      "type": "event"
    },
    {
      "anonymous": false,
      "inputs": [
        {
          "indexed": true,
          "internalType": "bytes32",
          "name": "node",
          "type": "bytes32"
        },
        {
          "indexed": false,
          "internalType": "uint64",
          "name": "ttl",
          "type": "uint64"
        }
      ],
      "name": "NewTTL",
      "type": "event"
    },
    {
      "constant": false,
      "inputs": [
        {
          "internalType": "bytes32",
          "name": "node",
          "type": "bytes32"
        },
        {
          "internalType": "address",
          "name": "owner",
          "type": "address"
        }
      ],
      "name": "setOwner",
      "outputs": [],
      "payable": false,
      "stateMutability": "nonpayable",
      "type": "function"
    },
    {
      "constant": false,
      "inputs": [
        {
          "internalType": "bytes32",
          "name": "node",
          "type": "bytes32"
        },
        {
          "internalType": "bytes32",
          "name": "label",
          "type": "bytes32"
        },
        {
          "internalType": "address",
          "name": "owner",
          "type": "address"
        }
      ],
      "name": "setSubnodeOwner",
      "outputs": [],
      "payable": false,
      "stateMutability": "nonpayable",
      "type": "function"
    },
    {
      "constant": false,
      "inputs": [
        {
          "internalType": "bytes32",
          "name": "node",
          "type": "bytes32"
        },
        {
          "internalType": "address",
          "name": "resolver",
          "type": "address"
        }
      ],
      "name": "setResolver",
      "outputs": [],
      "payable": false,
      "stateMutability": "nonpayable",
      "type": "function"
    },
    {
      "constant": false,
      "inputs": [
        {
          "internalType": "bytes32",
          "name": "node",
          "type": "bytes32"
        },
        {
          "internalType": "uint64",
          "name": "ttl",
          "type": "uint64"
        }
      ],
      "name": "setTTL",
      "outputs": [],
      "payable": false,
      "stateMutability": "nonpayable",
      "type": "function"
    },
    {
      "constant": true,
      "inputs": [
        {
          "internalType": "bytes32",
          "name": "node",
          "type": "bytes32"
        }
      ],
      "name": "owner",
      "outputs": [
        {
          "internalType": "address",
          "name": "",
          "type": "address"
        }
      ],
      "payable": false,
      "stateMutability": "view",
      "type": "function"
    },
    {
      "constant": true,
      "inputs": [
        {
          "internalType": "bytes32",
          "name": "node",
          "type": "bytes32"
        }
      ],
      "name": "resolver",
      "outputs": [
        {
          "internalType": "address",
          "name": "",
          "type": "address"
        }
      ],
      "payable": false,
      "stateMutability": "view",
      "type": "function"
    },
    {
      "constant": true,
      "inputs": [
        {
          "internalType": "bytes32",
          "name": "node",
          "type": "bytes32"
        }
      ],
      "name": "ttl",
      "outputs": [
        {
          "internalType": "uint64",
          "name": "",
          "type": "uint64"
        }
      ],
      "payable": false,
      "stateMutability": "view",
      "type": "function"
    }
  ],
  "bytecode": "0x608060405234801561001057600080fd5b503360008080600102815260200190815260200160002060000160006101000a81548173ffffffffffffffffffffffffffffffffffffffff021916908373ffffffffffffffffffffffffffffffffffffffff16021790555061089f806100776000396000f3fe608060405234801561001057600080fd5b506004361061009a576000357c01000000000000000000000000000000000000000000000000000000009004806314ab90381161007857806314ab9038146101d357806316a25cbd146102155780631896f70a1461026b5780635b0fc9c3146102b95761009a565b80630178b8bf1461009f57806302571be31461010d57806306ab59231461017b575b600080fd5b6100cb600480360360208110156100b557600080fd5b8101908080359060200190929190505050610307565b604051808273ffffffffffffffffffffffffffffffffffffffff1673ffffffffffffffffffffffffffffffffffffffff16815260200191505060405180910390f35b6101396004803603602081101561012357600080fd5b8101908080359060200190929190505050610346565b604051808273ffffffffffffffffffffffffffffffffffffffff1673ffffffffffffffffffffffffffffffffffffffff16815260200191505060405180910390f35b6101d16004803603606081101561019157600080fd5b810190808035906020019092919080359060200190929190803573ffffffffffffffffffffffffffffffffffffffff169060200190929190505050610385565b005b610213600480360360408110156101e957600080fd5b8101908080359060200190929190803567ffffffffffffffff1690602001909291905050506104e6565b005b6102416004803603602081101561022b57600080fd5b81019080803590602001909291905050506105e1565b604051808267ffffffffffffffff1667ffffffffffffffff16815260200191505060405180910390f35b6102b76004803603604081101561028157600080fd5b8101908080359060200190929190803573ffffffffffffffffffffffffffffffffffffffff169060200190929190505050610614565b005b610305600480360360408110156102cf57600080fd5b8101908080359060200190929190803573ffffffffffffffffffffffffffffffffffffffff16906020019092919050505061073f565b005b600080600083815260200190815260200160002060010160009054906101000a900473ffffffffffffffffffffffffffffffffffffffff169050919050565b600080600083815260200190815260200160002060000160009054906101000a900473ffffffffffffffffffffffffffffffffffffffff169050919050565b823373ffffffffffffffffffffffffffffffffffffffff1660008083815260200190815260200160002060000160009054906101000a900473ffffffffffffffffffffffffffffffffffffffff1673ffffffffffffffffffffffffffffffffffffffff16146103f357600080fd5b60008484604051602001808381526020018281526020019250505060405160208183030381529060405280519060200120905083857fce0457fe73731f824cc272376169235128c118b49d344817417c6d108d155e8285604051808273ffffffffffffffffffffffffffffffffffffffff1673ffffffffffffffffffffffffffffffffffffffff16815260200191505060405180910390a38260008083815260200190815260200160002060000160006101000a81548173ffffffffffffffffffffffffffffffffffffffff021916908373ffffffffffffffffffffffffffffffffffffffff1602179055505050505050565b813373ffffffffffffffffffffffffffffffffffffffff1660008083815260200190815260200160002060000160009054906101000a900473ffffffffffffffffffffffffffffffffffffffff1673ffffffffffffffffffffffffffffffffffffffff161461055457600080fd5b827f1d4f9bbfc9cab89d66e1a1562f2233ccbf1308cb4f63de2ead5787adddb8fa6883604051808267ffffffffffffffff1667ffffffffffffffff16815260200191505060405180910390a28160008085815260200190815260200160002060010160146101000a81548167ffffffffffffffff021916908367ffffffffffffffff160217905550505050565b600080600083815260200190815260200160002060010160149054906101000a900467ffffffffffffffff169050919050565b813373ffffffffffffffffffffffffffffffffffffffff1660008083815260200190815260200160002060000160009054906101000a900473ffffffffffffffffffffffffffffffffffffffff1673ffffffffffffffffffffffffffffffffffffffff161461068257600080fd5b827f335721b01866dc23fbee8b6b2c7b1e14d6f05c28cd35a2c934239f94095602a083604051808273ffffffffffffffffffffffffffffffffffffffff1673ffffffffffffffffffffffffffffffffffffffff16815260200191505060405180910390a28160008085815260200190815260200160002060010160006101000a81548173ffffffffffffffffffffffffffffffffffffffff021916908373ffffffffffffffffffffffffffffffffffffffff160217905550505050565b813373ffffffffffffffffffffffffffffffffffffffff1660008083815260200190815260200160002060000160009054906101000a900473ffffffffffffffffffffffffffffffffffffffff1673ffffffffffffffffffffffffffffffffffffffff16146107ad57600080fd5b827fd4735d920b0f87494915f556dd9b54c8f309026070caea5c737245152564d26683604051808273ffffffffffffffffffffffffffffffffffffffff1673ffffffffffffffffffffffffffffffffffffffff16815260200191505060405180910390a28160008085815260200190815260200160002060000160006101000a81548173ffffffffffffffffffffffffffffffffffffffff021916908373ffffffffffffffffffffffffffffffffffffffff16021790555050505056fea265627a7a72315820e41baa3d03e749b57f5c94ecdd05219f8f8c4da1de0bd3bc20f6bbca73c0779764736f6c634300050b0032",
  "source": "pragma solidity ^0.5.0;\n\nimport \"./ENS.sol\";\n\n/**\n * The ENS registry contract.\n */\ncontract ENSRegistry is ENS {\n    struct Record {\n        address owner;\n        address resolver;\n        uint64 ttl;\n    }\n\n    mapping (bytes32 => Record) records;\n\n    // Permits modifications only by the owner of the specified node.\n    modifier only_owner(bytes32 node) {\n        require(records[node].owner == msg.sender);\n        _;\n    }\n\n    /**\n     * @dev Constructs a new ENS registrar.\n     */\n    constructor() public {\n        records[0x0].owner = msg.sender;\n    }\n\n    /**\n     * @dev Transfers ownership of a node to a new address. May only be called by the current owner of the node.\n     * @param node The node to transfer ownership of.\n     * @param owner The address of the new owner.\n     */\n    function setOwner(bytes32 node, address owner) external only_owner(node) {\n        emit Transfer(node, owner);\n        records[node].owner = owner;\n    }\n\n    /**\n     * @dev Transfers ownership of a subnode keccak256(node, label) to a new address. May only be called by the owner of the parent node.\n     * @param node The parent node.\n     * @param label The hash of the label specifying the subnode.\n     * @param owner The address of the new owner.\n     */\n    function setSubnodeOwner(bytes32 node, bytes32 label, address owner) external only_owner(node) {\n        bytes32 subnode = keccak256(abi.encodePacked(node, label));\n        emit NewOwner(node, label, owner);\n        records[subnode].owner = owner;\n    }\n\n    /**\n     * @dev Sets the resolver address for the specified node.\n     * @param node The node to update.\n     * @param resolver The address of the resolver.\n     */\n    function setResolver(bytes32 node, address resolver) external only_owner(node) {\n        emit NewResolver(node, resolver);   \n        records[node].resolver = resolver;\n    }\n\n    /**\n     * @dev Sets the TTL for the specified node.\n     * @param node The node to update.\n     * @param ttl The TTL in seconds.\n     */\n    function setTTL(bytes32 node, uint64 ttl) external only_owner(node) {\n        emit NewTTL(node, ttl);\n        records[node].ttl = ttl;\n    }\n\n    /**\n     * @dev Returns the address that owns the specified node.\n     * @param node The specified node.\n     * @return address of the owner.\n     */\n    function owner(bytes32 node) external view returns (address) {\n        return records[node].owner;\n    }\n\n    /**\n     * @dev Returns the address of the resolver for the specified node.\n     * @param node The specified node.\n     * @return address of the resolver.\n     */\n    function resolver(bytes32 node) external view returns (address) {\n        return records[node].resolver;\n    }\n\n    /**\n     * @dev Returns the TTL of a node, and any records associated with it.\n     * @param node The specified node.\n     * @return ttl of the node.\n     */\n    function ttl(bytes32 node) external view returns (uint64) {\n        return records[node].ttl;\n    }\n\n}\n",
  "sourcePath": "@ensdomains/ens/contracts/ENSRegistry.sol",
  "compiler": {
    "name": "solc",
    "version": "0.5.11+commit.c082d0b4.Emscripten.clang"
  },
  "schemaVersion": "3.0.2",
  "updatedAt": "2019-08-13T18:57:30.189Z",
  "devdoc": {
    "methods": {
      "constructor": {
        "details": "Constructs a new ENS registrar."
      },
      "owner(bytes32)": {
        "details": "Returns the address that owns the specified node.",
        "params": {
          "node": "The specified node."
        },
        "return": "address of the owner."
      },
      "resolver(bytes32)": {
        "details": "Returns the address of the resolver for the specified node.",
        "params": {
          "node": "The specified node."
        },
        "return": "address of the resolver."
      },
      "setOwner(bytes32,address)": {
        "details": "Transfers ownership of a node to a new address. May only be called by the current owner of the node.",
        "params": {
          "node": "The node to transfer ownership of.",
          "owner": "The address of the new owner."
        }
      },
      "setResolver(bytes32,address)": {
        "details": "Sets the resolver address for the specified node.",
        "params": {
          "node": "The node to update.",
          "resolver": "The address of the resolver."
        }
      },
      "setSubnodeOwner(bytes32,bytes32,address)": {
        "details": "Transfers ownership of a subnode keccak256(node, label) to a new address. May only be called by the owner of the parent node.",
        "params": {
          "label": "The hash of the label specifying the subnode.",
          "node": "The parent node.",
          "owner": "The address of the new owner."
        }
      },
      "setTTL(bytes32,uint64)": {
        "details": "Sets the TTL for the specified node.",
        "params": {
          "node": "The node to update.",
          "ttl": "The TTL in seconds."
        }
      },
      "ttl(bytes32)": {
        "details": "Returns the TTL of a node, and any records associated with it.",
        "params": {
          "node": "The specified node."
        },
        "return": "ttl of the node."
      }
    }
  },
  "userdoc": {
    "methods": {},
    "notice": "The ENS registry contract."
  }
}