{
  "contractName": "EthRegistrarSubdomainRegistrar",
  "abi": [
    {
      "constant": true,
      "inputs": [
        {
          "internalType": "bytes4",
          "name": "interfaceID",
          "type": "bytes4"
        }
      ],
      "name": "supportsInterface",
      "outputs": [
        {
          "internalType": "bool",
          "name": "",
          "type": "bool"
        }
      ],
      "payable": false,
      "stateMutability": "pure",
      "type": "function"
    },
    {
      "constant": false,
      "inputs": [],
      "name": "stop",
      "outputs": [],
      "payable": false,
      "stateMutability": "nonpayable",
      "type": "function"
    },
    {
      "constant": true,
      "inputs": [],
      "name": "migration",
      "outputs": [
        {
          "internalType": "address",
          "name": "",
          "type": "address"
        }
      ],
      "payable": false,
      "stateMutability": "view",
      "type": "function"
    },
    {
      "constant": true,
      "inputs": [],
      "name": "registrarOwner",
      "outputs": [
        {
          "internalType": "address",
          "name": "",
          "type": "address"
        }
      ],
      "payable": false,
      "stateMutability": "view",
      "type": "function"
    },
    {
      "constant": true,
      "inputs": [],
      "name": "registrar",
      "outputs": [
        {
          "internalType": "address",
          "name": "",
          "type": "address"
        }
      ],
      "payable": false,
      "stateMutability": "view",
      "type": "function"
    },
    {
      "constant": true,
      "inputs": [],
      "name": "ens",
      "outputs": [
        {
          "internalType": "contract ENS",
          "name": "",
          "type": "address"
        }
      ],
      "payable": false,
      "stateMutability": "view",
      "type": "function"
    },
    {
      "constant": false,
      "inputs": [
        {
          "internalType": "address",
          "name": "_migration",
          "type": "address"
        }
      ],
      "name": "setMigrationAddress",
      "outputs": [],
      "payable": false,
      "stateMutability": "nonpayable",
      "type": "function"
    },
    {
      "constant": false,
      "inputs": [
        {
          "internalType": "string",
          "name": "name",
          "type": "string"
        },
        {
          "internalType": "address",
          "name": "resolver",
          "type": "address"
        }
      ],
      "name": "setResolver",
      "outputs": [],
      "payable": false,
      "stateMutability": "nonpayable",
      "type": "function"
    },
    {
      "constant": true,
      "inputs": [],
      "name": "stopped",
      "outputs": [
        {
          "internalType": "bool",
          "name": "",
          "type": "bool"
        }
      ],
      "payable": false,
      "stateMutability": "view",
      "type": "function"
    },
    {
      "constant": true,
      "inputs": [],
      "name": "TLD_NODE",
      "outputs": [
        {
          "internalType": "bytes32",
          "name": "",
          "type": "bytes32"
        }
      ],
      "payable": false,
      "stateMutability": "view",
      "type": "function"
    },
    {
      "constant": false,
      "inputs": [
        {
          "internalType": "string",
          "name": "name",
          "type": "string"
        },
        {
          "internalType": "uint256",
          "name": "price",
          "type": "uint256"
        },
        {
          "internalType": "uint256",
          "name": "referralFeePPM",
          "type": "uint256"
        }
      ],
      "name": "configureDomain",
      "outputs": [],
      "payable": false,
      "stateMutability": "nonpayable",
      "type": "function"
    },
    {
      "constant": false,
      "inputs": [
        {
          "internalType": "address",
          "name": "newOwner",
          "type": "address"
        }
      ],
      "name": "transferOwnership",
      "outputs": [],
      "payable": false,
      "stateMutability": "nonpayable",
      "type": "function"
    },
    {
      "inputs": [
        {
          "internalType": "contract ENS",
          "name": "_ens",
          "type": "address"
        }
      ],
      "payable": false,
      "stateMutability": "nonpayable",
      "type": "constructor"
    },
    {
      "anonymous": false,
      "inputs": [
        {
          "indexed": true,
          "internalType": "bytes32",
          "name": "label",
          "type": "bytes32"
        },
        {
          "indexed": false,
          "internalType": "string",
          "name": "name",
          "type": "string"
        }
      ],
      "name": "DomainTransferred",
      "type": "event"
    },
    {
      "anonymous": false,
      "inputs": [
        {
          "indexed": true,
          "internalType": "bytes32",
          "name": "label",
          "type": "bytes32"
        },
        {
          "indexed": true,
          "internalType": "address",
          "name": "oldOwner",
          "type": "address"
        },
        {
          "indexed": true,
          "internalType": "address",
          "name": "newOwner",
          "type": "address"
        }
      ],
      "name": "OwnerChanged",
      "type": "event"
    },
    {
      "anonymous": false,
      "inputs": [
        {
          "indexed": true,
          "internalType": "bytes32",
          "name": "label",
          "type": "bytes32"
        }
      ],
      "name": "DomainConfigured",
      "type": "event"
    },
    {
      "anonymous": false,
      "inputs": [
        {
          "indexed": true,
          "internalType": "bytes32",
          "name": "label",
          "type": "bytes32"
        }
      ],
      "name": "DomainUnlisted",
      "type": "event"
    },
    {
      "anonymous": false,
      "inputs": [
        {
          "indexed": true,
          "internalType": "bytes32",
          "name": "label",
          "type": "bytes32"
        },
        {
          "indexed": false,
          "internalType": "string",
          "name": "subdomain",
          "type": "string"
        },
        {
          "indexed": true,
          "internalType": "address",
          "name": "owner",
          "type": "address"
        },
        {
          "indexed": true,
          "internalType": "address",
          "name": "referrer",
          "type": "address"
        },
        {
          "indexed": false,
          "internalType": "uint256",
          "name": "price",
          "type": "uint256"
        }
      ],
      "name": "NewRegistration",
      "type": "event"
    },
    {
      "anonymous": false,
      "inputs": [
        {
          "indexed": true,
          "internalType": "bytes32",
          "name": "label",
          "type": "bytes32"
        },
        {
          "indexed": false,
          "internalType": "string",
          "name": "subdomain",
          "type": "string"
        },
        {
          "indexed": false,
          "internalType": "uint256",
          "name": "amount",
          "type": "uint256"
        },
        {
          "indexed": false,
          "internalType": "uint256",
          "name": "expirationDate",
          "type": "uint256"
        }
      ],
      "name": "RentPaid",
      "type": "event"
    },
    {
      "constant": true,
      "inputs": [
        {
          "internalType": "bytes32",
          "name": "label",
          "type": "bytes32"
        }
      ],
      "name": "owner",
      "outputs": [
        {
          "internalType": "address",
          "name": "",
          "type": "address"
        }
      ],
      "payable": false,
      "stateMutability": "view",
      "type": "function"
    },
    {
      "constant": false,
      "inputs": [
        {
          "internalType": "string",
          "name": "name",
          "type": "string"
        },
        {
          "internalType": "address payable",
          "name": "newOwner",
          "type": "address"
        }
      ],
      "name": "transfer",
      "outputs": [],
      "payable": false,
      "stateMutability": "nonpayable",
      "type": "function"
    },
    {
      "constant": false,
      "inputs": [
        {
          "internalType": "string",
          "name": "name",
          "type": "string"
        },
        {
          "internalType": "uint256",
          "name": "price",
          "type": "uint256"
        },
        {
          "internalType": "uint256",
          "name": "referralFeePPM",
          "type": "uint256"
        },
        {
          "internalType": "address payable",
          "name": "_owner",
          "type": "address"
        },
        {
          "internalType": "address",
          "name": "_transfer",
          "type": "address"
        }
      ],
      "name": "configureDomainFor",
      "outputs": [],
      "payable": false,
      "stateMutability": "nonpayable",
      "type": "function"
    },
    {
      "constant": false,
      "inputs": [
        {
          "internalType": "string",
          "name": "name",
          "type": "string"
        }
      ],
      "name": "unlistDomain",
      "outputs": [],
      "payable": false,
      "stateMutability": "nonpayable",
      "type": "function"
    },
    {
      "constant": true,
      "inputs": [
        {
          "internalType": "bytes32",
          "name": "label",
          "type": "bytes32"
        },
        {
          "internalType": "string",
          "name": "subdomain",
          "type": "string"
        }
      ],
      "name": "query",
      "outputs": [
        {
          "internalType": "string",
          "name": "domain",
          "type": "string"
        },
        {
          "internalType": "uint256",
          "name": "price",
          "type": "uint256"
        },
        {
          "internalType": "uint256",
          "name": "rent",
          "type": "uint256"
        },
        {
          "internalType": "uint256",
          "name": "referralFeePPM",
          "type": "uint256"
        }
      ],
      "payable": false,
      "stateMutability": "view",
      "type": "function"
    },
    {
      "constant": false,
      "inputs": [
        {
          "internalType": "bytes32",
          "name": "label",
          "type": "bytes32"
        },
        {
          "internalType": "string",
          "name": "subdomain",
          "type": "string"
        },
        {
          "internalType": "address",
          "name": "_subdomainOwner",
          "type": "address"
        },
        {
          "internalType": "address payable",
          "name": "referrer",
          "type": "address"
        },
        {
          "internalType": "address",
          "name": "resolver",
          "type": "address"
        },
        {
          "internalType": "bytes",
          "name": "contenthash",
          "type": "bytes"
        }
      ],
      "name": "register",
      "outputs": [],
      "payable": true,
      "stateMutability": "payable",
      "type": "function"
    },
    {
      "constant": true,
      "inputs": [
        {
          "internalType": "bytes32",
          "name": "label",
          "type": "bytes32"
        },
        {
          "internalType": "string",
          "name": "subdomain",
          "type": "string"
        }
      ],
      "name": "rentDue",
      "outputs": [
        {
          "internalType": "uint256",
          "name": "timestamp",
          "type": "uint256"
        }
      ],
      "payable": false,
      "stateMutability": "view",
      "type": "function"
    },
    {
      "constant": false,
      "inputs": [
        {
          "internalType": "string",
          "name": "name",
          "type": "string"
        }
      ],
      "name": "migrate",
      "outputs": [],
      "payable": false,
      "stateMutability": "nonpayable",
      "type": "function"
    },
    {
      "constant": false,
      "inputs": [
        {
          "internalType": "bytes32",
          "name": "label",
          "type": "bytes32"
        },
        {
          "internalType": "string",
          "name": "subdomain",
          "type": "string"
        }
      ],
      "name": "payRent",
      "outputs": [],
      "payable": true,
      "stateMutability": "payable",
      "type": "function"
    }
  ],
  "bytecode": "0x608060405260008060006101000a81548160ff02191690831515021790555034801561002a57600080fd5b5060405162002c5038038062002c508339818101604052602081101561004f57600080fd5b81019080805190602001909291905050508080600360006101000a81548173ffffffffffffffffffffffffffffffffffffffff021916908373ffffffffffffffffffffffffffffffffffffffff160217905550600360009054906101000a900473ffffffffffffffffffffffffffffffffffffffff1673ffffffffffffffffffffffffffffffffffffffff166302571be37f93cdeb708b7545dc668eb9280176169d1c33cfd8ed6f04690a0bcc88a93fc4ae6001026040518263ffffffff167c01000000000000000000000000000000000000000000000000000000000281526004018082815260200191505060206040518083038186803b15801561015457600080fd5b505afa158015610168573d6000803e3d6000fd5b505050506040513d602081101561017e57600080fd5b8101908080519060200190929190505050600260006101000a81548173ffffffffffffffffffffffffffffffffffffffff021916908373ffffffffffffffffffffffffffffffffffffffff16021790555033600060016101000a81548173ffffffffffffffffffffffffffffffffffffffff021916908373ffffffffffffffffffffffffffffffffffffffff1602179055505050612a2e80620002226000396000f3fe608060405260043610610147576000357c010000000000000000000000000000000000000000000000000000000090048063660b7ad5116100c8578063cb01a9bf1161008c578063cb01a9bf14610901578063cf77525514610984578063da1fe7d514610aa0578063e34e788914610b7c578063f2fde38b14610c44578063fbf58b3e14610c9557610147565b8063660b7ad514610653578063733ccaba146106f757806375f12b21146107df57806396df35401461080e578063c9c5b5b41461083957610147565b806321430fc91161010f57806321430fc9146102fe5780632b20e397146104365780632eef3d651461048d5780633f15457f146105ab5780634732a7dc1461060257610147565b806301ffc9a71461014c57806302571be3146101be57806307da68f5146102395780631705a3bd146102505780631cb82d79146102a7575b600080fd5b34801561015857600080fd5b506101a46004803603602081101561016f57600080fd5b8101908080357bffffffffffffffffffffffffffffffffffffffffffffffffffffffff19169060200190929190505050610d7d565b604051808215151515815260200191505060405180910390f35b3480156101ca57600080fd5b506101f7600480360360208110156101e157600080fd5b8101908080359060200190929190505050610e63565b604051808273ffffffffffffffffffffffffffffffffffffffff1673ffffffffffffffffffffffffffffffffffffffff16815260200191505060405180910390f35b34801561024557600080fd5b5061024e610fe2565b005b34801561025c57600080fd5b50610265611071565b604051808273ffffffffffffffffffffffffffffffffffffffff1673ffffffffffffffffffffffffffffffffffffffff16815260200191505060405180910390f35b3480156102b357600080fd5b506102bc611097565b604051808273ffffffffffffffffffffffffffffffffffffffff1673ffffffffffffffffffffffffffffffffffffffff16815260200191505060405180910390f35b610434600480360360c081101561031457600080fd5b81019080803590602001909291908035906020019064010000000081111561033b57600080fd5b82018360208201111561034d57600080fd5b8035906020019184600183028401116401000000008311171561036f57600080fd5b9091929391929390803573ffffffffffffffffffffffffffffffffffffffff169060200190929190803573ffffffffffffffffffffffffffffffffffffffff169060200190929190803573ffffffffffffffffffffffffffffffffffffffff169060200190929190803590602001906401000000008111156103f057600080fd5b82018360208201111561040257600080fd5b8035906020019184600183028401116401000000008311171561042457600080fd5b90919293919293905050506110bd565b005b34801561044257600080fd5b5061044b61163d565b604051808273ffffffffffffffffffffffffffffffffffffffff1673ffffffffffffffffffffffffffffffffffffffff16815260200191505060405180910390f35b34801561049957600080fd5b5061051b600480360360408110156104b057600080fd5b8101908080359060200190929190803590602001906401000000008111156104d757600080fd5b8201836020820111156104e957600080fd5b8035906020019184600183028401116401000000008311171561050b57600080fd5b9091929391929390505050611663565b6040518080602001858152602001848152602001838152602001828103825286818151815260200191508051906020019080838360005b8381101561056d578082015181840152602081019050610552565b50505050905090810190601f16801561059a5780820380516001836020036101000a031916815260200191505b509550505050505060405180910390f35b3480156105b757600080fd5b506105c0611918565b604051808273ffffffffffffffffffffffffffffffffffffffff1673ffffffffffffffffffffffffffffffffffffffff16815260200191505060405180910390f35b34801561060e57600080fd5b506106516004803603602081101561062557600080fd5b81019080803573ffffffffffffffffffffffffffffffffffffffff16906020019092919050505061193e565b005b34801561065f57600080fd5b506106e16004803603604081101561067657600080fd5b81019080803590602001909291908035906020019064010000000081111561069d57600080fd5b8201836020820111156106af57600080fd5b803590602001918460018302840111640100000000831117156106d157600080fd5b90919293919293905050506119f4565b6040518082815260200191505060405180910390f35b34801561070357600080fd5b506107dd6004803603604081101561071a57600080fd5b810190808035906020019064010000000081111561073757600080fd5b82018360208201111561074957600080fd5b8035906020019184600183028401116401000000008311171561076b57600080fd5b91908080601f016020809104026020016040519081016040528093929190818152602001838380828437600081840152601f19601f820116905080830192505050505050509192919290803573ffffffffffffffffffffffffffffffffffffffff169060200190929190505050611a20565b005b3480156107eb57600080fd5b506107f4611bae565b604051808215151515815260200191505060405180910390f35b34801561081a57600080fd5b50610823611bc0565b6040518082815260200191505060405180910390f35b34801561084557600080fd5b506108ff6004803603602081101561085c57600080fd5b810190808035906020019064010000000081111561087957600080fd5b82018360208201111561088b57600080fd5b803590602001918460018302840111640100000000831117156108ad57600080fd5b91908080601f016020809104026020016040519081016040528093929190818152602001838380828437600081840152601f19601f820116905080830192505050505050509192919290505050611be7565b005b6109826004803603604081101561091757600080fd5b81019080803590602001909291908035906020019064010000000081111561093e57600080fd5b82018360208201111561095057600080fd5b8035906020019184600183028401116401000000008311171561097257600080fd5b909192939192939050505061209c565b005b34801561099057600080fd5b50610a9e600480360360a08110156109a757600080fd5b81019080803590602001906401000000008111156109c457600080fd5b8201836020820111156109d657600080fd5b803590602001918460018302840111640100000000831117156109f857600080fd5b91908080601f016020809104026020016040519081016040528093929190818152602001838380828437600081840152601f19601f8201169050808301925050505050505091929192908035906020019092919080359060200190929190803573ffffffffffffffffffffffffffffffffffffffff169060200190929190803573ffffffffffffffffffffffffffffffffffffffff1690602001909291905050506120a1565b005b348015610aac57600080fd5b50610b7a60048036036060811015610ac357600080fd5b8101908080359060200190640100000000811115610ae057600080fd5b820183602082011115610af257600080fd5b80359060200191846001830284011164010000000083111715610b1457600080fd5b91908080601f016020809104026020016040519081016040528093929190818152602001838380828437600081840152601f19601f8201169050808301925050505050505091929192908035906020019092919080359060200190929190505050612273565b005b348015610b8857600080fd5b50610c4260048036036020811015610b9f57600080fd5b8101908080359060200190640100000000811115610bbc57600080fd5b820183602082011115610bce57600080fd5b80359060200191846001830284011164010000000083111715610bf057600080fd5b91908080601f016020809104026020016040519081016040528093929190818152602001838380828437600081840152601f19601f820116905080830192505050505050509192919290505050612286565b005b348015610c5057600080fd5b50610c9360048036036020811015610c6757600080fd5b81019080803573ffffffffffffffffffffffffffffffffffffffff169060200190929190505050612360565b005b348015610ca157600080fd5b50610d7b60048036036040811015610cb857600080fd5b8101908080359060200190640100000000811115610cd557600080fd5b820183602082011115610ce757600080fd5b80359060200191846001830284011164010000000083111715610d0957600080fd5b91908080601f016020809104026020016040519081016040528093929190818152602001838380828437600081840152601f19601f820116905080830192505050505050509192919290803573ffffffffffffffffffffffffffffffffffffffff1690602001909291905050506123fe565b005b60006301ffc9a77c010000000000000000000000000000000000000000000000000000000002827bffffffffffffffffffffffffffffffffffffffffffffffffffffffff19161480610e10575063c1b15f5a7c010000000000000000000000000000000000000000000000000000000002827bffffffffffffffffffffffffffffffffffffffffffffffffffffffff1916145b80610e5c575063bc1c58d17c010000000000000000000000000000000000000000000000000000000002827bffffffffffffffffffffffffffffffffffffffffffffffffffffffff1916145b9050919050565b60008073ffffffffffffffffffffffffffffffffffffffff166004600084815260200190815260200160002060010160009054906101000a900473ffffffffffffffffffffffffffffffffffffffff1673ffffffffffffffffffffffffffffffffffffffff1614610f0c576004600083815260200190815260200160002060010160009054906101000a900473ffffffffffffffffffffffffffffffffffffffff169050610fdd565b600260009054906101000a900473ffffffffffffffffffffffffffffffffffffffff1673ffffffffffffffffffffffffffffffffffffffff16636352211e83600190046040518263ffffffff167c01000000000000000000000000000000000000000000000000000000000281526004018082815260200191505060206040518083038186803b158015610f9f57600080fd5b505afa158015610fb3573d6000803e3d6000fd5b505050506040513d6020811015610fc957600080fd5b810190808051906020019092919050505090505b919050565b6000809054906101000a900460ff1615610ffb57600080fd5b600060019054906101000a900473ffffffffffffffffffffffffffffffffffffffff1673ffffffffffffffffffffffffffffffffffffffff163373ffffffffffffffffffffffffffffffffffffffff161461105557600080fd5b60016000806101000a81548160ff021916908315150217905550565b600160009054906101000a900473ffffffffffffffffffffffffffffffffffffffff1681565b600060019054906101000a900473ffffffffffffffffffffffffffffffffffffffff1681565b6000809054906101000a900460ff16156110d657600080fd5b600085905060007f93cdeb708b7545dc668eb9280176169d1c33cfd8ed6f04690a0bcc88a93fc4ae6001028a60405160200180838152602001828152602001925050506040516020818303038152906040528051906020012090506000898960405180838380828437808301925050509250505060405180910390209050600073ffffffffffffffffffffffffffffffffffffffff16600360009054906101000a900473ffffffffffffffffffffffffffffffffffffffff1673ffffffffffffffffffffffffffffffffffffffff166302571be384846040516020018083815260200182815260200192505050604051602081830303815290604052805190602001206040518263ffffffff167c01000000000000000000000000000000000000000000000000000000000281526004018082815260200191505060206040518083038186803b15801561122957600080fd5b505afa15801561123d573d6000803e3d6000fd5b505050506040513d602081101561125357600080fd5b810190808051906020019092919050505073ffffffffffffffffffffffffffffffffffffffff161461128457600080fd5b6000600460008d815260200190815260200160002090508b8160000160405180828054600181600116156101000203166002900480156112fb5780601f106112d95761010080835404028352918201916112fb565b820191906000526020600020905b8154815290600101906020018083116112e7575b505091505060405180910390201461131257600080fd5b806002015434101561132357600080fd5b806002015434111561137d573373ffffffffffffffffffffffffffffffffffffffff166108fc826002015434039081150290604051600060405180830381858888f1935050505015801561137b573d6000803e3d6000fd5b505b600081600201549050600082600301541180156113c75750600073ffffffffffffffffffffffffffffffffffffffff168973ffffffffffffffffffffffffffffffffffffffff1614155b801561142357508160010160009054906101000a900473ffffffffffffffffffffffffffffffffffffffff1673ffffffffffffffffffffffffffffffffffffffff168973ffffffffffffffffffffffffffffffffffffffff1614155b15611491576000620f424083600301548460020154028161144057fe5b0490508973ffffffffffffffffffffffffffffffffffffffff166108fc829081150290604051600060405180830381858888f19350505050158015611489573d6000803e3d6000fd5b508082039150505b6000811115611506578160010160009054906101000a900473ffffffffffffffffffffffffffffffffffffffff1673ffffffffffffffffffffffffffffffffffffffff166108fc829081150290604051600060405180830381858888f19350505050158015611504573d6000803e3d6000fd5b505b600073ffffffffffffffffffffffffffffffffffffffff168573ffffffffffffffffffffffffffffffffffffffff16141561153f573394505b6115908484878b8b8b8080601f016020809104026020016040519081016040528093929190818152602001838380828437600081840152601f19601f8201169050808301925050505050505061253e565b8873ffffffffffffffffffffffffffffffffffffffff168573ffffffffffffffffffffffffffffffffffffffff168e7ffa38f9920801763ca6e4ee19135fb26a4fa11c0a34f7117455064991a1a3e6588f8f876002015460405180806020018381526020018281038252858582818152602001925080828437600081840152601f19601f82011690508083019250505094505050505060405180910390a450505050505050505050505050565b600260009054906101000a900473ffffffffffffffffffffffffffffffffffffffff1681565b60606000806000807f93cdeb708b7545dc668eb9280176169d1c33cfd8ed6f04690a0bcc88a93fc4ae600102886040516020018083815260200182815260200192505050604051602081830303815290604052805190602001209050600081888860405180838380828437808301925050509250505060405180910390206040516020018083815260200182815260200192505050604051602081830303815290604052805190602001209050600073ffffffffffffffffffffffffffffffffffffffff16600360009054906101000a900473ffffffffffffffffffffffffffffffffffffffff1673ffffffffffffffffffffffffffffffffffffffff166302571be3836040518263ffffffff167c01000000000000000000000000000000000000000000000000000000000281526004018082815260200191505060206040518083038186803b1580156117b757600080fd5b505afa1580156117cb573d6000803e3d6000fd5b505050506040513d60208110156117e157600080fd5b810190808051906020019092919050505073ffffffffffffffffffffffffffffffffffffffff161461183d576000806000604051806020016040528060008152509291908292508191508090509550955095509550505061190f565b6000600460008b8152602001908152602001600020905080600001816002015460008360030154838054600181600116156101000203166002900480601f0160208091040260200160405190810160405280929190818152602001828054600181600116156101000203166002900480156118f95780601f106118ce576101008083540402835291602001916118f9565b820191906000526020600020905b8154815290600101906020018083116118dc57829003601f168201915b5050505050935081915096509650965096505050505b93509350935093565b600360009054906101000a900473ffffffffffffffffffffffffffffffffffffffff1681565b600060019054906101000a900473ffffffffffffffffffffffffffffffffffffffff1673ffffffffffffffffffffffffffffffffffffffff163373ffffffffffffffffffffffffffffffffffffffff161461199857600080fd5b6000809054906101000a900460ff166119b057600080fd5b80600160006101000a81548173ffffffffffffffffffffffffffffffffffffffff021916908373ffffffffffffffffffffffffffffffffffffffff16021790555050565b60007fffffffffffffffffffffffffffffffffffffffffffffffffffffffffffffffff90509392505050565b81805190602001203373ffffffffffffffffffffffffffffffffffffffff16611a4882610e63565b73ffffffffffffffffffffffffffffffffffffffff1614611a6857600080fd5b60008380519060200120905060007f93cdeb708b7545dc668eb9280176169d1c33cfd8ed6f04690a0bcc88a93fc4ae600102826040516020018083815260200182815260200192505050604051602081830303815290604052805190602001209050600360009054906101000a900473ffffffffffffffffffffffffffffffffffffffff1673ffffffffffffffffffffffffffffffffffffffff16631896f70a82866040518363ffffffff167c0100000000000000000000000000000000000000000000000000000000028152600401808381526020018273ffffffffffffffffffffffffffffffffffffffff1673ffffffffffffffffffffffffffffffffffffffff16815260200192505050600060405180830381600087803b158015611b8f57600080fd5b505af1158015611ba3573d6000803e3d6000fd5b505050505050505050565b6000809054906101000a900460ff1681565b7f93cdeb708b7545dc668eb9280176169d1c33cfd8ed6f04690a0bcc88a93fc4ae60010281565b80805190602001203373ffffffffffffffffffffffffffffffffffffffff16611c0f82610e63565b73ffffffffffffffffffffffffffffffffffffffff1614611c2f57600080fd5b6000809054906101000a900460ff16611c4757600080fd5b600073ffffffffffffffffffffffffffffffffffffffff16600160009054906101000a900473ffffffffffffffffffffffffffffffffffffffff1673ffffffffffffffffffffffffffffffffffffffff161415611ca357600080fd5b6000828051906020012090506000600460008381526020019081526020016000209050600260009054906101000a900473ffffffffffffffffffffffffffffffffffffffff1673ffffffffffffffffffffffffffffffffffffffff1663095ea7b3600160009054906101000a900473ffffffffffffffffffffffffffffffffffffffff1684600190046040518363ffffffff167c0100000000000000000000000000000000000000000000000000000000028152600401808373ffffffffffffffffffffffffffffffffffffffff1673ffffffffffffffffffffffffffffffffffffffff16815260200182815260200192505050600060405180830381600087803b158015611db157600080fd5b505af1158015611dc5573d6000803e3d6000fd5b50505050600160009054906101000a900473ffffffffffffffffffffffffffffffffffffffff1673ffffffffffffffffffffffffffffffffffffffff1663cf77525582600001836002015484600301548560010160009054906101000a900473ffffffffffffffffffffffffffffffffffffffff1660006040518663ffffffff167c010000000000000000000000000000000000000000000000000000000002815260040180806020018681526020018581526020018473ffffffffffffffffffffffffffffffffffffffff1673ffffffffffffffffffffffffffffffffffffffff1681526020018373ffffffffffffffffffffffffffffffffffffffff1673ffffffffffffffffffffffffffffffffffffffff168152602001828103825287818154600181600116156101000203166002900481526020019150805460018160011615610100020316600290048015611f605780601f10611f3557610100808354040283529160200191611f60565b820191906000526020600020905b815481529060010190602001808311611f4357829003601f168201915b50509650505050505050600060405180830381600087803b158015611f8457600080fd5b505af1158015611f98573d6000803e3d6000fd5b505050506004600083815260200190815260200160002060008082016000611fc0919061290c565b6001820160006101000a81549073ffffffffffffffffffffffffffffffffffffffff0219169055600282016000905560038201600090555050817f8c0dd32279c25300d82425bebe31a5c703918d83d2bb57a1155dfa6cbba61cf8856040518080602001828103825283818151815260200191508051906020019080838360005b8381101561205c578082015181840152602081019050612041565b50505050905090810190601f1680156120895780820380516001836020036101000a031916815260200191505b509250505060405180910390a250505050565b600080fd5b6000858051906020012090503073ffffffffffffffffffffffffffffffffffffffff166120cd82610e63565b73ffffffffffffffffffffffffffffffffffffffff16146120ed57600080fd5b60006004600083815260200190815260200160002090508373ffffffffffffffffffffffffffffffffffffffff168160010160009054906101000a900473ffffffffffffffffffffffffffffffffffffffff1673ffffffffffffffffffffffffffffffffffffffff161461219f57838160010160006101000a81548173ffffffffffffffffffffffffffffffffffffffff021916908373ffffffffffffffffffffffffffffffffffffffff1602179055505b818160000160405180828054600181600116156101000203166002900480156121ff5780601f106121dd5761010080835404028352918201916121ff565b820191906000526020600020905b8154815290600101906020018083116121eb575b505091505060405180910390201461222b5786816000019080519060200190612229929190612954565b505b858160020181905550848160030181905550817f1427993bb6b6c16d8953c450c37078c8f41196e2e2db1619cda06620143e2d9160405160405180910390a250505050505050565b6122818383833360006120a1565b505050565b80805190602001203373ffffffffffffffffffffffffffffffffffffffff166122ae82610e63565b73ffffffffffffffffffffffffffffffffffffffff16146122ce57600080fd5b6000828051906020012090506000600460008381526020019081526020016000209050817f77f7b610de5055c8f704e6a3b12874468f5785f3a7d1007b67a8a4b4c7ed88fc60405160405180910390a260405180602001604052806000815250816000019080519060200190612345929190612954565b50600081600201819055506000816003018190555050505050565b600060019054906101000a900473ffffffffffffffffffffffffffffffffffffffff1673ffffffffffffffffffffffffffffffffffffffff163373ffffffffffffffffffffffffffffffffffffffff16146123ba57600080fd5b80600060016101000a81548173ffffffffffffffffffffffffffffffffffffffff021916908373ffffffffffffffffffffffffffffffffffffffff16021790555050565b81805190602001203373ffffffffffffffffffffffffffffffffffffffff1661242682610e63565b73ffffffffffffffffffffffffffffffffffffffff161461244657600080fd5b6000838051906020012090508273ffffffffffffffffffffffffffffffffffffffff166004600083815260200190815260200160002060010160009054906101000a900473ffffffffffffffffffffffffffffffffffffffff1673ffffffffffffffffffffffffffffffffffffffff16827f06e9c07310f63759634ddbb7257dbb19ca404f90bd6bdef1d3386fab033cebce60405160405180910390a4826004600083815260200190815260200160002060010160006101000a81548173ffffffffffffffffffffffffffffffffffffffff021916908373ffffffffffffffffffffffffffffffffffffffff16021790555050505050565b600360009054906101000a900473ffffffffffffffffffffffffffffffffffffffff1673ffffffffffffffffffffffffffffffffffffffff166306ab59238686306040518463ffffffff167c0100000000000000000000000000000000000000000000000000000000028152600401808481526020018381526020018273ffffffffffffffffffffffffffffffffffffffff1673ffffffffffffffffffffffffffffffffffffffff1681526020019350505050600060405180830381600087803b15801561260b57600080fd5b505af115801561261f573d6000803e3d6000fd5b50505050600085856040516020018083815260200182815260200192505050604051602081830303815290604052805190602001209050600360009054906101000a900473ffffffffffffffffffffffffffffffffffffffff1673ffffffffffffffffffffffffffffffffffffffff16631896f70a82856040518363ffffffff167c0100000000000000000000000000000000000000000000000000000000028152600401808381526020018273ffffffffffffffffffffffffffffffffffffffff1673ffffffffffffffffffffffffffffffffffffffff16815260200192505050600060405180830381600087803b15801561271b57600080fd5b505af115801561272f573d6000803e3d6000fd5b505050508273ffffffffffffffffffffffffffffffffffffffff1663304e6ade82846040518363ffffffff167c01000000000000000000000000000000000000000000000000000000000281526004018083815260200180602001828103825283818151815260200191508051906020019080838360005b838110156127c25780820151818401526020810190506127a7565b50505050905090810190601f1680156127ef5780820380516001836020036101000a031916815260200191505b509350505050600060405180830381600087803b15801561280f57600080fd5b505af1158015612823573d6000803e3d6000fd5b50505050600360009054906101000a900473ffffffffffffffffffffffffffffffffffffffff1673ffffffffffffffffffffffffffffffffffffffff16635b0fc9c382866040518363ffffffff167c0100000000000000000000000000000000000000000000000000000000028152600401808381526020018273ffffffffffffffffffffffffffffffffffffffff1673ffffffffffffffffffffffffffffffffffffffff16815260200192505050600060405180830381600087803b1580156128ec57600080fd5b505af1158015612900573d6000803e3d6000fd5b50505050505050505050565b50805460018160011615610100020316600290046000825580601f106129325750612951565b601f01602090049060005260206000209081019061295091906129d4565b5b50565b828054600181600116156101000203166002900490600052602060002090601f016020900481019282601f1061299557805160ff19168380011785556129c3565b828001600101855582156129c3579182015b828111156129c25782518255916020019190600101906129a7565b5b5090506129d091906129d4565b5090565b6129f691905b808211156129f25760008160009055506001016129da565b5090565b9056fea265627a7a72315820a09880d7494b489457d02af56affe0a90c41a792685cbb6b0307986e6761f23164736f6c634300050b0032",
  "source": "pragma solidity ^0.5.0;\n\nimport \"@ensdomains/ethregistrar/contracts/BaseRegistrar.sol\";\nimport \"./AbstractSubdomainRegistrar.sol\";\n\n/**\n * @dev Implements an ENS registrar that sells subdomains on behalf of their owners.\n *\n * Users may register a subdomain by calling `register` with the name of the domain\n * they wish to register under, and the label hash of the subdomain they want to\n * register. They must also specify the new owner of the domain, and the referrer,\n * who is paid an optional finder's fee. The registrar then configures a simple\n * default resolver, which resolves `addr` lookups to the new owner, and sets\n * the `owner` account as the owner of the subdomain in ENS.\n *\n * New domains may be added by calling `configureDomain`, then transferring\n * ownership in the ENS registry to this contract. Ownership in the contract\n * may be transferred using `transfer`, and a domain may be unlisted for sale\n * using `unlistDomain`. There is (deliberately) no way to recover ownership\n * in ENS once the name is transferred to this registrar.\n *\n * Critically, this contract does not check one key property of a listed domain:\n *\n * - Is the name UTS46 normalised?\n *\n * User applications MUST check these two elements for each domain before\n * offering them to users for registration.\n *\n * Applications should additionally check that the domains they are offering to\n * register are controlled by this registrar, since calls to `register` will\n * fail if this is not the case.\n */\ncontract EthRegistrarSubdomainRegistrar is AbstractSubdomainRegistrar {\n\n    struct Domain {\n        string name;\n        address payable owner;\n        uint price;\n        uint referralFeePPM;\n    }\n\n    mapping (bytes32 => Domain) domains;\n\n    constructor(ENS _ens) AbstractSubdomainRegistrar(_ens) public { }\n\n    /**\n     * @dev owner returns the address of the account that controls a domain.\n     *      Initially this is a null address. If the name has been\n     *      transferred to this contract, then the internal mapping is consulted\n     *      to determine who controls it. If the owner is not set,\n     *      the owner of the domain in the Registrar is returned.\n     * @param label The label hash of the deed to check.\n     * @return The address owning the deed.\n     */\n    function owner(bytes32 label) public view returns (address) {\n        if (domains[label].owner != address(0x0)) {\n            return domains[label].owner;\n        }\n\n        return BaseRegistrar(registrar).ownerOf(uint256(label));\n    }\n\n    /**\n     * @dev Transfers internal control of a name to a new account. Does not update\n     *      ENS.\n     * @param name The name to transfer.\n     * @param newOwner The address of the new owner.\n     */\n    function transfer(string memory name, address payable newOwner) public owner_only(keccak256(bytes(name))) {\n        bytes32 label = keccak256(bytes(name));\n        emit OwnerChanged(label, domains[label].owner, newOwner);\n        domains[label].owner = newOwner;\n    }\n\n    /**\n     * @dev Configures a domain, optionally transferring it to a new owner.\n     * @param name The name to configure.\n     * @param price The price in wei to charge for subdomain registrations.\n     * @param referralFeePPM The referral fee to offer, in parts per million.\n     * @param _owner The address to assign ownership of this domain to.\n     * @param _transfer The address to set as the transfer address for the name\n     *        when the permanent registrar is replaced. Can only be set to a non-zero\n     *        value once.\n     */\n    function configureDomainFor(string memory name, uint price, uint referralFeePPM, address payable _owner, address _transfer) public {\n    \t\n        bytes32 label = keccak256(bytes(name));\n        require(owner(label) == address(this));\n        \n        Domain storage domain = domains[label];\n\n       /*\n        if (BaseRegistrar(registrar).ownerOf(uint256(label)) != address(this)) {\n            BaseRegistrar(registrar).transferFrom(msg.sender, address(this), uint256(label));\n            BaseRegistrar(registrar).reclaim(uint256(label), address(this));\n        }\n\t*/\n        if (domain.owner != _owner) {\n            domain.owner = _owner;\n        }\n\n        if (keccak256(bytes(domain.name)) != label) {\n            // New listing\n            domain.name = name;\n        }\n\n        domain.price = price;\n        domain.referralFeePPM = referralFeePPM;\n\n        emit DomainConfigured(label);\n    }\n\n    /**\n     * @dev Unlists a domain\n     * May only be called by the owner.\n     * @param name The name of the domain to unlist.\n     */\n    function unlistDomain(string memory name) public owner_only(keccak256(bytes(name))) {\n        bytes32 label = keccak256(bytes(name));\n        Domain storage domain = domains[label];\n        emit DomainUnlisted(label);\n\n        domain.name = '';\n        domain.price = 0;\n        domain.referralFeePPM = 0;\n    }\n\n    /**\n     * @dev Returns information about a subdomain.\n     * @param label The label hash for the domain.\n     * @param subdomain The label for the subdomain.\n     * @return domain The name of the domain, or an empty string if the subdomain\n     *                is unavailable.\n     * @return price The price to register a subdomain, in wei.\n     * @return rent The rent to retain a subdomain, in wei per second.\n     * @return referralFeePPM The referral fee for the dapp, in ppm.\n     */\n    function query(bytes32 label, string calldata subdomain) external view returns (string memory domain, uint price, uint rent, uint referralFeePPM) {\n        bytes32 node = keccak256(abi.encodePacked(TLD_NODE, label));\n        bytes32 subnode = keccak256(abi.encodePacked(node, keccak256(bytes(subdomain))));\n\n        if (ens.owner(subnode) != address(0x0)) {\n            return ('', 0, 0, 0);\n        }\n\n        Domain storage data = domains[label];\n        return (data.name, data.price, 0, data.referralFeePPM);\n    }\n\n    /**\n     * @dev Registers a subdomain.\n     * @param label The label hash of the domain to register a subdomain of.\n     * @param subdomain The desired subdomain label.\n     * @param _subdomainOwner The account that should own the newly configured subdomain.\n     * @param referrer The address of the account to receive the referral fee.\n     */\n    function register(bytes32 label, string calldata subdomain, address _subdomainOwner, address payable referrer, address resolver, bytes calldata contenthash) external not_stopped payable {\n        address subdomainOwner = _subdomainOwner;\n        bytes32 domainNode = keccak256(abi.encodePacked(TLD_NODE, label));\n        bytes32 subdomainLabel = keccak256(bytes(subdomain));\n\n        // Subdomain must not be registered already.\n        require(ens.owner(keccak256(abi.encodePacked(domainNode, subdomainLabel))) == address(0));\n\n        Domain storage domain = domains[label];\n\n        // Domain must be available for registration\n        require(keccak256(bytes(domain.name)) == label);\n\n        // User must have paid enough\n        require(msg.value >= domain.price);\n\n        // Send any extra back\n        if (msg.value > domain.price) {\n            msg.sender.transfer(msg.value - domain.price);\n        }\n\n        // Send any referral fee\n        uint256 total = domain.price;\n        if (domain.referralFeePPM > 0 && referrer != address(0x0) && referrer != domain.owner) {\n            uint256 referralFee = (domain.price * domain.referralFeePPM) / 1000000;\n            referrer.transfer(referralFee);\n            total -= referralFee;\n        }\n\n        // Send the registration fee\n        if (total > 0) {\n            domain.owner.transfer(total);\n        }\n\n        // Register the domain\n        if (subdomainOwner == address(0x0)) {\n            subdomainOwner = msg.sender;\n        }\n        doRegistration(domainNode, subdomainLabel, subdomainOwner, Resolver(resolver), contenthash);\n\n        emit NewRegistration(label, subdomain, subdomainOwner, referrer, domain.price);\n    }\n\n    function rentDue(bytes32 label, string calldata subdomain) external view returns (uint timestamp) {\n        return 0xFFFFFFFFFFFFFFFFFFFFFFFFFFFFFFFFFFFFFFFFFFFFFFFFFFFFFFFFFFFFFFFF;\n    }\n\n    /**\n     * @dev Migrates the domain to a new registrar.\n     * @param name The name of the domain to migrate.\n     */\n    function migrate(string memory name) public owner_only(keccak256(bytes(name))) {\n        require(stopped);\n        require(migration != address(0x0));\n\n        bytes32 label = keccak256(bytes(name));\n        Domain storage domain = domains[label];\n\n        BaseRegistrar(registrar).approve(migration, uint256(label));\n\n        EthRegistrarSubdomainRegistrar(migration).configureDomainFor(\n            domain.name,\n            domain.price,\n            domain.referralFeePPM,\n            domain.owner,\n            address(0x0)\n        );\n\n        delete domains[label];\n\n        emit DomainTransferred(label, name);\n    }\n\n    function payRent(bytes32 label, string calldata subdomain) external payable {\n        revert();\n    }\n}\n",
  "sourcePath": "/Users/michaeljcohen/Desktop/projects/perseus/contracts/EthRegistrarSubdomainRegistrar.sol",
  "compiler": {
    "name": "solc",
    "version": "0.5.11+commit.c082d0b4.Emscripten.clang"
  },
  "schemaVersion": "3.0.2",
  "updatedAt": "2019-08-15T14:39:06.205Z",
  "devdoc": {
    "details": "Implements an ENS registrar that sells subdomains on behalf of their owners. * Users may register a subdomain by calling `register` with the name of the domain they wish to register under, and the label hash of the subdomain they want to register. They must also specify the new owner of the domain, and the referrer, who is paid an optional finder's fee. The registrar then configures a simple default resolver, which resolves `addr` lookups to the new owner, and sets the `owner` account as the owner of the subdomain in ENS. * New domains may be added by calling `configureDomain`, then transferring ownership in the ENS registry to this contract. Ownership in the contract may be transferred using `transfer`, and a domain may be unlisted for sale using `unlistDomain`. There is (deliberately) no way to recover ownership in ENS once the name is transferred to this registrar. * Critically, this contract does not check one key property of a listed domain: * - Is the name UTS46 normalised? * User applications MUST check these two elements for each domain before offering them to users for registration. * Applications should additionally check that the domains they are offering to register are controlled by this registrar, since calls to `register` will fail if this is not the case.",
    "methods": {
      "configureDomain(string,uint256,uint256)": {
        "details": "Configures a domain for sale.",
        "params": {
          "name": "The name to configure.",
          "price": "The price in wei to charge for subdomain registrations",
          "referralFeePPM": "The referral fee to offer, in parts per million"
        }
      },
      "configureDomainFor(string,uint256,uint256,address,address)": {
        "details": "Configures a domain, optionally transferring it to a new owner.",
        "params": {
          "_owner": "The address to assign ownership of this domain to.",
          "_transfer": "The address to set as the transfer address for the name       when the permanent registrar is replaced. Can only be set to a non-zero       value once.",
          "name": "The name to configure.",
          "price": "The price in wei to charge for subdomain registrations.",
          "referralFeePPM": "The referral fee to offer, in parts per million."
        }
      },
      "migrate(string)": {
        "details": "Migrates the domain to a new registrar.",
        "params": {
          "name": "The name of the domain to migrate."
        }
      },
      "owner(bytes32)": {
        "details": "owner returns the address of the account that controls a domain.     Initially this is a null address. If the name has been     transferred to this contract, then the internal mapping is consulted     to determine who controls it. If the owner is not set,     the owner of the domain in the Registrar is returned.",
        "params": {
          "label": "The label hash of the deed to check."
        },
        "return": "The address owning the deed."
      },
      "query(bytes32,string)": {
        "details": "Returns information about a subdomain.",
        "params": {
          "label": "The label hash for the domain.",
          "subdomain": "The label for the subdomain."
        },
        "return": "domain The name of the domain, or an empty string if the subdomain               is unavailable.price The price to register a subdomain, in wei.rent The rent to retain a subdomain, in wei per second.referralFeePPM The referral fee for the dapp, in ppm."
      },
      "register(bytes32,string,address,address,address,bytes)": {
        "details": "Registers a subdomain.",
        "params": {
          "_subdomainOwner": "The account that should own the newly configured subdomain.",
          "label": "The label hash of the domain to register a subdomain of.",
          "referrer": "The address of the account to receive the referral fee.",
          "subdomain": "The desired subdomain label."
        }
      },
      "setMigrationAddress(address)": {
        "details": "Sets the address where domains are migrated to.",
        "params": {
          "_migration": "Address of the new registrar."
        }
      },
      "setResolver(string,address)": {
        "details": "Sets the resolver record for a name in ENS.",
        "params": {
          "name": "The name to set the resolver for.",
          "resolver": "The address of the resolver"
        }
      },
      "stop()": {
        "details": "Stops the registrar, disabling configuring of new domains."
      },
      "transfer(string,address)": {
        "details": "Transfers internal control of a name to a new account. Does not update     ENS.",
        "params": {
          "name": "The name to transfer.",
          "newOwner": "The address of the new owner."
        }
      },
      "unlistDomain(string)": {
        "details": "Unlists a domain May only be called by the owner.",
        "params": {
          "name": "The name of the domain to unlist."
        }
      }
    }
  },
  "userdoc": {
    "methods": {}
  }
}