{
  "contractName": "SubdomainMigrationRegistrar",
  "abi": [
    {
      "constant": true,
      "inputs": [],
      "name": "hashRegistrar",
      "outputs": [
        {
          "internalType": "contract HashRegistrar",
          "name": "",
          "type": "address"
        }
      ],
      "payable": false,
      "stateMutability": "view",
      "type": "function"
    },
    {
      "constant": true,
      "inputs": [],
      "name": "newRegistrar",
      "outputs": [
        {
          "internalType": "address payable",
          "name": "",
          "type": "address"
        }
      ],
      "payable": false,
      "stateMutability": "view",
      "type": "function"
    },
    {
      "constant": true,
      "inputs": [],
      "name": "ethRegistrar",
      "outputs": [
        {
          "internalType": "contract BaseRegistrar",
          "name": "",
          "type": "address"
        }
      ],
      "payable": false,
      "stateMutability": "view",
      "type": "function"
    },
    {
      "constant": true,
      "inputs": [],
      "name": "TLD_NODE",
      "outputs": [
        {
          "internalType": "bytes32",
          "name": "",
          "type": "bytes32"
        }
      ],
      "payable": false,
      "stateMutability": "view",
      "type": "function"
    },
    {
      "constant": true,
      "inputs": [],
      "name": "previousRegistrar",
      "outputs": [
        {
          "internalType": "address",
          "name": "",
          "type": "address"
        }
      ],
      "payable": false,
      "stateMutability": "view",
      "type": "function"
    },
    {
      "inputs": [
        {
          "internalType": "address",
          "name": "_previousRegistrar",
          "type": "address"
        },
        {
          "internalType": "address payable",
          "name": "_newRegistrar",
          "type": "address"
        },
        {
          "internalType": "contract HashRegistrar",
          "name": "_hashRegistrar",
          "type": "address"
        },
        {
          "internalType": "contract BaseRegistrar",
          "name": "_ethRegistrar",
          "type": "address"
        }
      ],
      "payable": false,
      "stateMutability": "nonpayable",
      "type": "constructor"
    },
    {
      "payable": true,
      "stateMutability": "payable",
      "type": "fallback"
    },
    {
      "constant": false,
      "inputs": [
        {
          "internalType": "string",
          "name": "name",
          "type": "string"
        },
        {
          "internalType": "uint256",
          "name": "price",
          "type": "uint256"
        },
        {
          "internalType": "uint256",
          "name": "referralFeePPM",
          "type": "uint256"
        },
        {
          "internalType": "address payable",
          "name": "_owner",
          "type": "address"
        },
        {
          "internalType": "address",
          "name": "_transfer",
          "type": "address"
        }
      ],
      "name": "configureDomainFor",
      "outputs": [],
      "payable": false,
      "stateMutability": "nonpayable",
      "type": "function"
    }
  ],
  "bytecode": "0x608060405234801561001057600080fd5b50604051610b15380380610b158339818101604052608081101561003357600080fd5b810190808051906020019092919080519060200190929190805190602001909291908051906020019092919050505083600260006101000a81548173ffffffffffffffffffffffffffffffffffffffff021916908373ffffffffffffffffffffffffffffffffffffffff16021790555082600360006101000a81548173ffffffffffffffffffffffffffffffffffffffff021916908373ffffffffffffffffffffffffffffffffffffffff160217905550816000806101000a81548173ffffffffffffffffffffffffffffffffffffffff021916908373ffffffffffffffffffffffffffffffffffffffff16021790555080600160006101000a81548173ffffffffffffffffffffffffffffffffffffffff021916908373ffffffffffffffffffffffffffffffffffffffff1602179055505050505061099d806101786000396000f3fe608060405260043610610072576000357c010000000000000000000000000000000000000000000000000000000090048063387c0cb4146100745780633c9b51b4146100cb578063565b052b1461012257806396df354014610179578063ab14ec59146101a4578063cf775255146101fb575b005b34801561008057600080fd5b50610089610317565b604051808273ffffffffffffffffffffffffffffffffffffffff1673ffffffffffffffffffffffffffffffffffffffff16815260200191505060405180910390f35b3480156100d757600080fd5b506100e061033c565b604051808273ffffffffffffffffffffffffffffffffffffffff1673ffffffffffffffffffffffffffffffffffffffff16815260200191505060405180910390f35b34801561012e57600080fd5b50610137610362565b604051808273ffffffffffffffffffffffffffffffffffffffff1673ffffffffffffffffffffffffffffffffffffffff16815260200191505060405180910390f35b34801561018557600080fd5b5061018e610388565b6040518082815260200191505060405180910390f35b3480156101b057600080fd5b506101b96103af565b604051808273ffffffffffffffffffffffffffffffffffffffff1673ffffffffffffffffffffffffffffffffffffffff16815260200191505060405180910390f35b34801561020757600080fd5b50610315600480360360a081101561021e57600080fd5b810190808035906020019064010000000081111561023b57600080fd5b82018360208201111561024d57600080fd5b8035906020019184600183028401116401000000008311171561026f57600080fd5b91908080601f016020809104026020016040519081016040528093929190818152602001838380828437600081840152601f19601f8201169050808301925050505050505091929192908035906020019092919080359060200190929190803573ffffffffffffffffffffffffffffffffffffffff169060200190929190803573ffffffffffffffffffffffffffffffffffffffff1690602001909291905050506103d5565b005b6000809054906101000a900473ffffffffffffffffffffffffffffffffffffffff1681565b600360009054906101000a900473ffffffffffffffffffffffffffffffffffffffff1681565b600160009054906101000a900473ffffffffffffffffffffffffffffffffffffffff1681565b7f93cdeb708b7545dc668eb9280176169d1c33cfd8ed6f04690a0bcc88a93fc4ae60010281565b600260009054906101000a900473ffffffffffffffffffffffffffffffffffffffff1681565b600260009054906101000a900473ffffffffffffffffffffffffffffffffffffffff1673ffffffffffffffffffffffffffffffffffffffff163373ffffffffffffffffffffffffffffffffffffffff161461042f57600080fd5b600085805190602001209050600061044682610865565b73ffffffffffffffffffffffffffffffffffffffff16633fa4f2456040518163ffffffff167c010000000000000000000000000000000000000000000000000000000002815260040160206040518083038186803b1580156104a757600080fd5b505afa1580156104bb573d6000803e3d6000fd5b505050506040513d60208110156104d157600080fd5b810190808051906020019092919050505090506000809054906101000a900473ffffffffffffffffffffffffffffffffffffffff1673ffffffffffffffffffffffffffffffffffffffff16635ddae283836040518263ffffffff167c010000000000000000000000000000000000000000000000000000000002815260040180828152602001915050600060405180830381600087803b15801561057457600080fd5b505af1158015610588573d6000803e3d6000fd5b50505050600160009054906101000a900473ffffffffffffffffffffffffffffffffffffffff1673ffffffffffffffffffffffffffffffffffffffff1663095ea7b3600360009054906101000a900473ffffffffffffffffffffffffffffffffffffffff1684600190046040518363ffffffff167c0100000000000000000000000000000000000000000000000000000000028152600401808373ffffffffffffffffffffffffffffffffffffffff1673ffffffffffffffffffffffffffffffffffffffff16815260200182815260200192505050600060405180830381600087803b15801561067757600080fd5b505af115801561068b573d6000803e3d6000fd5b505050508373ffffffffffffffffffffffffffffffffffffffff166108fc829081150290604051600060405180830381858888f193505050501580156106d5573d6000803e3d6000fd5b50600360009054906101000a900473ffffffffffffffffffffffffffffffffffffffff1673ffffffffffffffffffffffffffffffffffffffff1663cf77525588888888886040518663ffffffff167c010000000000000000000000000000000000000000000000000000000002815260040180806020018681526020018581526020018473ffffffffffffffffffffffffffffffffffffffff1673ffffffffffffffffffffffffffffffffffffffff1681526020018373ffffffffffffffffffffffffffffffffffffffff1673ffffffffffffffffffffffffffffffffffffffff168152602001828103825287818151815260200191508051906020019080838360005b838110156107f45780820151818401526020810190506107d9565b50505050905090810190601f1680156108215780820380516001836020036101000a031916815260200191505b509650505050505050600060405180830381600087803b15801561084457600080fd5b505af1158015610858573d6000803e3d6000fd5b5050505050505050505050565b6000806000809054906101000a900473ffffffffffffffffffffffffffffffffffffffff1673ffffffffffffffffffffffffffffffffffffffff1663267b6922846040518263ffffffff167c01000000000000000000000000000000000000000000000000000000000281526004018082815260200191505060a06040518083038186803b1580156108f657600080fd5b505afa15801561090a573d6000803e3d6000fd5b505050506040513d60a081101561092057600080fd5b8101908080519060200190929190805190602001909291908051906020019092919080519060200190929190805190602001909291905050505050509150508091505091905056fea265627a7a7231582003bf8bda621c5feeefd9d88aefe899277223f6c493622a3210fe039d25dd14ec64736f6c634300050b0032",
  "source": "pragma solidity ^0.5.0;\n\nimport \"@ensdomains/ens/contracts/HashRegistrar.sol\";\nimport \"@ensdomains/ethregistrar/contracts/BaseRegistrar.sol\";\n\ncontract SubdomainMigrationRegistrar {\n\n    bytes32 constant public TLD_NODE = 0x93cdeb708b7545dc668eb9280176169d1c33cfd8ed6f04690a0bcc88a93fc4ae;\n\n    HashRegistrar public hashRegistrar;\n    BaseRegistrar public ethRegistrar;\n\n    address public previousRegistrar;\n    address payable public newRegistrar;\n\n    modifier onlyPreviousRegistrar {\n        require(msg.sender == previousRegistrar);\n        _;\n    }\n\n    constructor(\n        address _previousRegistrar,\n        address payable _newRegistrar,\n        HashRegistrar _hashRegistrar,\n        BaseRegistrar _ethRegistrar\n    ) public {\n        previousRegistrar = _previousRegistrar;\n        newRegistrar = _newRegistrar;\n        hashRegistrar = _hashRegistrar;\n        ethRegistrar = _ethRegistrar;\n    }\n\n    function () external payable { }\n\n    function configureDomainFor(string memory name, uint price, uint referralFeePPM, address payable _owner, address _transfer) public onlyPreviousRegistrar {\n        bytes32 label = keccak256(bytes(name));\n\n        uint256 value = deed(label).value();\n\n        hashRegistrar.transferRegistrars(label);\n\n        ethRegistrar.approve(newRegistrar, uint256(label));\n\n        _owner.transfer(value);\n\n        SubdomainMigrationRegistrar(newRegistrar).configureDomainFor(\n            name,\n            price,\n            referralFeePPM,\n            _owner,\n            _transfer\n        );\n    }\n\n    function deed(bytes32 label) internal view returns (Deed) {\n        (, address deedAddress,,,) = hashRegistrar.entries(label);\n        return Deed(deedAddress);\n    }\n}\n",
  "sourcePath": "/Users/michaeljcohen/Desktop/projects/perseus/contracts/SubdomainMigrationRegistrar.sol",
  "compiler": {
    "name": "solc",
    "version": "0.5.11+commit.c082d0b4.Emscripten.clang"
  },
  "schemaVersion": "3.0.2",
  "updatedAt": "2019-08-13T18:57:30.185Z",
  "devdoc": {
    "methods": {}
  },
  "userdoc": {
    "methods": {}
  }
}